{
  "contractName": "HealthRecord",
  "abi": [
    {
      "constant": true,
      "inputs": [
        {
          "name": "",
          "type": "address"
        }
      ],
      "name": "records",
      "outputs": [
        {
          "name": "problems",
          "type": "string"
        },
        {
          "name": "medications",
          "type": "string"
        },
        {
          "name": "allergies",
          "type": "string"
        },
        {
          "name": "weight_kg",
          "type": "uint16"
        },
        {
          "name": "height_cm",
          "type": "uint16"
        }
      ],
      "payable": false,
      "stateMutability": "view",
      "type": "function"
    },
    {
      "constant": false,
      "inputs": [
        {
          "name": "_problems",
          "type": "string"
        },
        {
          "name": "_medications",
          "type": "string"
        },
        {
          "name": "_allergies",
          "type": "string"
        },
        {
          "name": "_weight_kg",
          "type": "uint16"
        },
        {
          "name": "_height_cm",
          "type": "uint16"
        }
      ],
      "name": "createRecord",
      "outputs": [],
      "payable": false,
      "stateMutability": "nonpayable",
      "type": "function"
    },
    {
      "constant": false,
      "inputs": [
        {
          "name": "_address",
          "type": "address"
        },
        {
          "name": "_problems",
          "type": "string"
        },
        {
          "name": "_medications",
          "type": "string"
        },
        {
          "name": "_allergies",
          "type": "string"
        },
        {
          "name": "_weight_kg",
          "type": "uint16"
        },
        {
          "name": "_height_cm",
          "type": "uint16"
        }
      ],
      "name": "updateRecord",
      "outputs": [],
      "payable": false,
      "stateMutability": "nonpayable",
      "type": "function"
    }
  ],
  "bytecode": "0x608060405234801561001057600080fd5b506109d1806100206000396000f300608060405260043610610057576000357c0100000000000000000000000000000000000000000000000000000000900463ffffffff168063469e90671461005c5780634c56b2101461020e578063dec0592a14610295575b600080fd5b34801561006857600080fd5b5061009d600480360381019080803573ffffffffffffffffffffffffffffffffffffffff16906020019092919050505061033c565b604051808060200180602001806020018661ffff1661ffff1681526020018561ffff1661ffff168152602001848103845289818151815260200191508051906020019080838360005b838110156101015780820151818401526020810190506100e6565b50505050905090810190601f16801561012e5780820380516001836020036101000a031916815260200191505b50848103835288818151815260200191508051906020019080838360005b8381101561016757808201518184015260208101905061014c565b50505050905090810190601f1680156101945780820380516001836020036101000a031916815260200191505b50848103825287818151815260200191508051906020019080838360005b838110156101cd5780820151818401526020810190506101b2565b50505050905090810190601f1680156101fa5780820380516001836020036101000a031916815260200191505b509850505050505050505060405180910390f35b34801561021a57600080fd5b50610293600480360381019080803590602001908201803590602001919091929391929390803590602001908201803590602001919091929391929390803590602001908201803590602001919091929391929390803561ffff169060200190929190803561ffff169060200190929190505050610556565b005b3480156102a157600080fd5b5061033a600480360381019080803573ffffffffffffffffffffffffffffffffffffffff169060200190929190803590602001908201803590602001919091929391929390803590602001908201803590602001919091929391929390803590602001908201803590602001919091929391929390803561ffff169060200190929190803561ffff16906020019092919050505061077e565b005b6000602052806000526040600020600091509050806000018054600181600116156101000203166002900480601f0160208091040260200160405190810160405280929190818152602001828054600181600116156101000203166002900480156103e85780601f106103bd576101008083540402835291602001916103e8565b820191906000526020600020905b8154815290600101906020018083116103cb57829003601f168201915b505050505090806001018054600181600116156101000203166002900480601f0160208091040260200160405190810160405280929190818152602001828054600181600116156101000203166002900480156104865780601f1061045b57610100808354040283529160200191610486565b820191906000526020600020905b81548152906001019060200180831161046957829003601f168201915b505050505090806002018054600181600116156101000203166002900480601f0160208091040260200160405190810160405280929190818152602001828054600181600116156101000203166002900480156105245780601f106104f957610100808354040283529160200191610524565b820191906000526020600020905b81548152906001019060200180831161050757829003601f168201915b5050505050908060030160009054906101000a900461ffff16908060030160029054906101000a900461ffff16905085565b6032888890501115801561056e575060328686905011155b801561057e575060328484905011155b151561058957600080fd5b60008261ffff161180156105a357506101f48261ffff1611155b80156105b3575060008161ffff16115b80156105c5575061012c8161ffff1611155b15156105d057600080fd5b60a06040519081016040528089898080601f016020809104026020016040519081016040528093929190818152602001838380828437820191505050505050815260200187878080601f016020809104026020016040519081016040528093929190818152602001838380828437820191505050505050815260200185858080601f01602080910402602001604051908101604052809392919081815260200183838082843782019150505050505081526020018361ffff1681526020018261ffff168152506000803373ffffffffffffffffffffffffffffffffffffffff1673ffffffffffffffffffffffffffffffffffffffff16815260200190815260200160002060008201518160000190805190602001906106f0929190610880565b50602082015181600101908051906020019061070d929190610880565b50604082015181600201908051906020019061072a929190610880565b5060608201518160030160006101000a81548161ffff021916908361ffff16021790555060808201518160030160026101000a81548161ffff021916908361ffff1602179055509050505050505050505050565b60008973ffffffffffffffffffffffffffffffffffffffff163373ffffffffffffffffffffffffffffffffffffffff161415156107ba57600080fd5b6000808b73ffffffffffffffffffffffffffffffffffffffff1673ffffffffffffffffffffffffffffffffffffffff1681526020019081526020016000209050888882600001919061080d929190610900565b508686826001019190610821929190610900565b508484826002019190610835929190610900565b50828160030160006101000a81548161ffff021916908361ffff160217905550818160030160026101000a81548161ffff021916908361ffff16021790555050505050505050505050565b828054600181600116156101000203166002900490600052602060002090601f016020900481019282601f106108c157805160ff19168380011785556108ef565b828001600101855582156108ef579182015b828111156108ee5782518255916020019190600101906108d3565b5b5090506108fc9190610980565b5090565b828054600181600116156101000203166002900490600052602060002090601f016020900481019282601f1061094157803560ff191683800117855561096f565b8280016001018555821561096f579182015b8281111561096e578235825591602001919060010190610953565b5b50905061097c9190610980565b5090565b6109a291905b8082111561099e576000816000905550600101610986565b5090565b905600a165627a7a723058209ea347733a8c5a869bfa243582a996c7713351c48fdc6dbc71274016ccd5f1930029",
  "source": "pragma solidity ^0.4.18;\n\ncontract HealthRecord {\n\tstruct Record {\n\t\t//problems, medications, allergies, weight, height\n\t\tstring problems;\n\t\tstring medications;\n\t\tstring allergies;\n\t\tuint16 weight_kg;\n\t\tuint16 height_cm;\n\t}\n\n\tmapping (address => Record) public records;\n\n\tfunction createRecord(string _problems, string _medications, string _allergies, uint16 _weight_kg, uint16 _height_cm) external {\n\t\trequire( (bytes(_problems).length <= 50) && (bytes(_medications).length <= 50) && (bytes(_allergies).length <= 50));\n\t\trequire( _weight_kg > 0 && _weight_kg <= 500 && _height_cm > 0 && _height_cm <= 300);\n\n\t\trecords[msg.sender] = Record(_problems, _medications, _allergies, _weight_kg, _height_cm);\n\t}\n\n\tfunction updateRecord(address _address, string _problems, string _medications, string _allergies, uint16 _weight_kg, uint16 _height_cm) external {\n\t\trequire (msg.sender == _address);\n\n\t\tRecord storage rec = records[_address];\n\t\trec.problems = _problems;\n\t\trec.medications = _medications;\n\t\trec.allergies = _allergies;\n\t\trec.weight_kg = _weight_kg;\n\t\trec.height_cm = _height_cm;\n\t}\n}",
  "sourcePath": "/Users/fjalcaraz/Desktop/SBC/homework/health-record/contracts/HealthRecord.sol",
  "compiler": {
    "name": "solc",
    "version": "0.4.23+commit.124ca40d.Emscripten.clang"
  },
  "schemaVersion": "2.0.0",
  "updatedAt": "2018-05-17T23:28:12.112Z"
}